:020000040800F2
:1008000000500020CD090008D1090008D3090008D4
:10081000E9090008EB090008010A000800000000CF
:10082000000000000000000000000000170A00089F
:10083000190A0008000000001B0A0008CD1E00086D
:10084000191F00081B1F00081D1F000821120008A7
:100850001F1F0008211F0008011C00082D1C000894
:10086000591C00086D1C0008811C0008310A000892
:10087000310A0008310A0008310A0008310A00086C
:10088000310A0008310A0008310A0008310A00085C
:10089000310A0008310A0008310A0008AD1C0008BE
:1008A000231F0008251F0008271F0008291F000814
:1008B000310A0008310A00082B1F0008BD0B000890
:1008C0003D0E00082D1F00082F1F0008311F0008D3
:1008D000331F0008351F0008371F0008391F0008A4
:1008E000111D00083B1F00083D1F0008000000000C
:1008F00000000000000000000000000000000000F8
:1009000000000000000000005FF808F107B500F0EB
:10091000AFFD234A234B24498B4204D252F8041FD3
:1009200043F8041BF7E7214B214A934203D20022EC
:1009300043F8042BF8E700F0A7FD684601A900F092
:100940008BFD1C4B1C4C1E46E41AA4100025A5422E
:1009500004DA56F8253098470135F8E7174B184C5C
:100960001E46E41AA4100025A54204DA56F82530E4
:1009700098470135F8E79DE8030000F011FE114BA0
:1009800006461D46104CE41AA410002C04DD013C60
:1009900055F824309847F8E7304600F065FD00BF71
:1009A0007C210008000000201C0000202000002006
:1009B000BC4A00205C0A00085C0A00085C0A0008C7
:1009C0005C0A00085C0A00085C0A0008144800473A
:1009D000FEE71EF0040F0CBFEFF30880EFF3098071
:1009E0007146104A1047FEE7FEE71EF0040F0CBFE9
:1009F000EFF30880EFF3098071460B4A1047FEE7DA
:100A00001EF0040F0CBFEFF30880EFF3098071466E
:100A1000064A1047FEE7FEE7FEE7FEE770470000E4
:100A20000D090008E7090008FF090008150A000879
:020A3000FEE7DF
:100A340080210008000000201C0000208021000804
:100A4400000000000000000020000020BC4A00203C
:080A540000000000000000009A
:100A5C0000210B46827830B502F03F020332441E6F
:100A6C000133DBB214F8015F934281EA0501F7D33D
:100A7C00C15430BD0C4B1A680AB90C4A1A6019687B
:100A8C000B4B0C48B1FBF3F382889BB292B222F071
:100A9C003F021A438280084A0133B1FBF2F19BB248
:100AAC0089B28183038470475045002000127A007C
:100ABC0040420F0000540040400D030038B5124D69
:100ACC001E23AB7014236B7048F240430F4C002074
:100ADC0023800F4B9B6803F0C003C02B13D10D4B2D
:100AEC0018604FF44073A38092232381A081FFF7F9
:100AFC00C1FF40F2414323800B232B70064B012096
:100B0C001A68064B1A6038BD254500200054004079
:100B1C00000C01403C800A42280000202C4500209B
:100B2C0010B5184C23780A2B0DD023780B2B0FD132
:100B3C00154B164A1B6812689B1A0A2B82BF114B65
:100B4C000C221A7004E0FFF7B9FF0028EDD110BD9C
:100B5C00A3780C4A212B05D10B4B19680C4B19604F
:100B6C0022230CE0222B0BD1074B09491B68096887
:100B7C005B1A012B04D9074B012119601E239370BA
:100B8C0010BD00BF25450020280000202C4500206A
:100B9C007845002028800A42034B0A221860034B38
:100BAC001A70FFF7BDBF00BF50450020254500203F
:100BBC002DE9F341874900208DF807008A8A864D7C
:100BCC0093B20A8B2C6843EA0242844B844E9B6896
:100BDC0022F07F471B0243F0530346F82430814C2C
:100BEC0027F48013A3424BD017D8B3F1021F2ED099
:100BFC000BD8102B00F09880502B40F0CF800B8836
:100C0C009BB243F001030B803AE0774A934200F029
:100C1C008B803032934233D0C0E0744A934200F060
:100C2C00898007D8103A934200F084800F329342A7
:100C3C007AD0B3E06E4A934200F08A80023293423B
:100C4C0000F08680043A934240F0A88080E0694925
:100C5C0001230B60C1F88030674912F4801F0B70C0
:100C6C00664A674B0ABF9221107011709A7818BFB0
:100C7C0018706FF305029A7008BF19701F2233E0C9
:100C8C005F4C604AA378DFF870E103F03F03043354
:100C9C001370594A11781B294E499BBF1078098A49
:100CAC00098A215496BF1178C9B2615C53488DF8FA
:100CBC00071012789A421AD290F800C09EF80020C1
:100CCC00D2B2511CA25CC9B28CEA02028EF800109E
:100CDC0002709EF800209A4266D10378002B63D0F4
:100CEC00444B00221A602122474B9A705CE0027838
:100CFC00404BDFF814818AB901221A60404800F099
:100D0C00BFFA202388F80230404BE27893F8283061
:100D1C009A4249D13E4A3F4BDA60FEE700221A6004
:100D2C00212388F802303FE02A4A13889BB243F013
:100D3C00010331E0384B00221A60384B254A1B78EE
:100D4C0099B211828DF80730354B01221A702BE0C5
:100D5C00334A34491378097899420DD31378DBB2AE
:100D6C00591CC9B211702D4AD35C1A4A8DF8073040
:100D7C009DF80730138217E02B4B186800F0B2FA7D
:100D8C00214B14225A70134A138ADBB28DF80730A8
:100D9C0013889BB243F40073138005E01A4B0A22AC
:100DAC001A70224B00221A602B689DF807105A1CEF
:100DBC0047EA016702334FF4FA6146F82270B3FB3D
:100DCC00F1F201FB12332B609DF8073002B0BDE845
:100DDC00F08100BF005400402000002010E000E033
:100DEC00E425002044000200100002001100030062
:100DFC008200070028800A4270450020244500200C
:100E0C00544500207C45002025450020302000085A
:100E1C000400FA0500ED00E0A8800A4230450020ED
:100E2C00294500202A45002074450020A4800A4250
:100E3C003A49F8B58B8A3A480A8B9BB243EA02438B
:100E4C00384C8268384E2768120242F05C0246F831
:100E5C002720DA0523F07F4505D5344B16225A702E
:100E6C000A221A7049E09F0526D5314B9A78500614
:100E7C0043D41B783C2B01D0842B19D12D4BC02291
:100E8C001A611A6822F008421A6040225A6100BFA7
:100E9C0000BF8021596100BF00BF1A619968254AC3
:100EAC004906FBD580231361136843F07F4313601D
:100EBC001E4B16225A7020E013F4806F1B4A1AD076
:100ECC000B889BB243F400730B80D378591ED170FE
:100EDC00002BEDD18268124B9B68D31A23F07F4311
:100EEC004F2BF8D9144B186800F005FA134B1868FF
:100EFC00FFF752FE01E00A231370084B00229A827E
:100F0C0023684FF4FA615A1C023346F82250B3FBA3
:100F1C00F1F201FB12332360F8BD00BF0054004016
:100F2C0010E000E020000020E425002025450020F2
:100F3C0030450020000C0140744500205045002035
:100F4C00274B70B51B68274C274A284D2848294940
:100F5C000BBB92682368120242F0C50245F82320AD
:100F6C0002685E1C42F0804202334FF4FA6045F88E
:100F7C002620B3FBF0F200FB123323601E4B1F4AFA
:100F8C009B78C3F305030433137015234B701C4B70
:100F9C0001221A6070BD926823681202006842F048
:100FAC00C50245F8232040F000465A1C45F8226043
:100FBC0002334FF4FA65B3FBF5F205FB12332360F1
:100FCC00CB785A1ECA7013B116234B7070BD00F04B
:100FDC0092F9BDE870400B4B1868FFF7DDBD00BF00
:100FEC0004830A422000002010E000E0E4250020E9
:100FFC007445002025450020304500202A4500205E
:10100C0020800A425045002010B50446054B0A22A8
:10101C000548DA70FFF71CFD044B1C60BDE810405E
:10102C00FFF78EBF25450020304500207445002079
:10103C0008B5054B1868FFF7AFFD044B0A22DA70B0
:10104C0016225A7008BD00BF5045002025450020CF
:10105C00334BE8B100221421DA601A6159619A61AC
:10106C00DA61196841F00101196058682D49014095
:10107C005960196821F0847121F480311960196864
:10108C0021F480211960596821F4FE0159609A609D
:10109C001A68112122F0F8021A601A6842F08002D4
:1010AC001A605A6822F0F0025A605A6822F46052B0
:1010BC005A605A6822F4E0625A605A6822F440423C
:1010CC005A605A6842F480425A60174A11604FF6CF
:1010DC00C07259680A405A605A68012142F4E01201
:1010EC005A60124A1160124A1268002AFBD05A68E0
:1010FC0022F0030242F002025A605A6802F00C021B
:10110C00082AFAD10B4B02221A700B4B01221A70CF
:10111C000A4B0B4A13600B4A13600B4A136070475F
:10112C00001002400000FFF8002002406000424224
:10113C0064004242340000200400002000512502CB
:10114C000C0000200000002008000020014B186853
:10115C00704700BF0C000020014B1868704700BF9F
:10116C0008000020164A012310B5136002F5501236
:10117C0002F58C621360134B1B68002BFBD0124BD7
:10118C004FF402421A62114B00221A601A68002AAC
:10119C00FCD00F4B1A68002AFBD00E4A01211160BB
:1011AC001A68002AFCD00C4A01210C481160282432
:1011BC0000210181848111601A68002AFCD010BDC5
:1011CC0020000E4284044242001002408C00054272
:1011DC0094000542000005429000054200280040A2
:1011EC000A4B10B40A4C03F13400012221680A4264
:1011FC004FEA420204D0196811B11968013919601B
:10120C0004338342F2D15DF8044B704780450020D3
:10121C003000002038B5144B144A00241C601368AD
:10122C0001331360FFF7DCFF114A1378012B02D84E
:10123C000133137013E00F4B14701D787DB900F05F
:10124C00BDF804280C4C09D123780133DBB2092BEF
:10125C00237004D9FFF7ECFE257000E02570074BD6
:10126C001B68002BFBD038BD8000054228000020F5
:10127C0024000020250000202C00002094000542B2
:10128C0038B5164AC3780546D35CFF2B24D01449D5
:10129C008278DB00CC18607802F03F02013AD2B2BF
:1012AC0000F03F0082420B44C8BF62785C68C8BF44
:1012BC0002F03F02A01C291D00F088FE23780120BB
:1012CC0013F0010F237814BF43F0020343F0010322
:1012DC0023706B78637038BD062038BD7020000811
:1012EC0030200008037823F002030370037823F006
:1012FC00010303707047037843F002030370037813
:10130C0023F0010303707047024B00221A705A70CD
:10131C00704700BFF445002010B5FFF7F5FF0D4CEA
:10132C0023784BB16278606802F03F0200210232F0
:10133C0000F057FE0834F3E7074C23784BB1627882
:10134C00606802F03F020021023200F04AFE0834CD
:10135C00F3E710BD302000080020000809490523E0
:10136C004A78013292FBF3F303EB8303D31A0A7826
:10137C00DBB293421FBF4A784B7001EB8202506084
:10138C00704700BFF44500204268137843F0010316
:10139C001370FFF7E3BF000007490A784B789A42B5
:1013AC0009D00B780522013393FBF2F202EB820297
:1013BC009B1ADBB20B707047F44500201F4A10B526
:1013CC0013880BB1013B13801D4B1A780C2A2ED1BC
:1013DC005B78162B03D1FFF7B3FD012010BD142B46
:1013EC0027D1184B19785A78914224D01A7816487C
:1013FC0003EB82035C68043061684B78023100F8BF
:10140C00043C922300F8033C6378013300F8023C5F
:10141C00237800F8013C627802F03F0200F0D6FD20
:10142C006068FFF7F1FDFFF7B7FF032010BD09203F
:10143C0010BD042010BD022010BD00BF36000020DE
:10144C0025450020F4450020304500200123036091
:10145C00014B0B60704700BF1000002008B500F076
:10146C000FF8000008B500F01DF8024B024A9A6014
:10147C0008BD00BF00ED00E00008000800F038B81F
:10148C00BFF34F8F0549064BCA6802F4E062134361
:10149C00CB60BFF34F8F00BFFDE700BF00ED00E056
:1014AC000400FA050F4B1A6842F001021A605968E1
:1014BC000D4A0A405A601A6822F0847222F4803273
:1014CC001A601A6822F480221A605A6822F4FE020A
:1014DC005A604FF41F029A60044B4FF000629A60FE
:1014EC00704700BF001002400000FFF800ED00E064
:1014FC007047000010B5114C2378DB071CD52378FE
:10150C0023F001032370A378AD2B15D1E378262BA0
:10151C0012D123798B2B0FD1012000F0EDFC084B5D
:10152C004FF0FF32C3F88020C3F88420054B60785D
:10153C001B68BDE81040184710BD00BFDB450020FC
:10154C0000E100E0400000080F4A1378DB0719D5D2
:10155C00137823F00103137091780C4BC9B2997076
:10156C005178C9B259700021D9701971597191789B
:10157C0001F0FF0219B90121D9701A715A7104488E
:10158C00FFF702BF704700BFB4450020D5450020CF
:10159C001020000808B5012000F016F8FFF7DCFD5C
:1015AC00FFF7FAFA00F024F800F0C4FCFFF7B4FEE1
:1015BC0000F016FCFFF79EFFFFF7C6FF00F0B4FB30
:1015CC00FFF7AEFAF6E7000008B5FFF741FD074B51
:1015DC009A6942F00D029A61DA6942F08152DA613D
:1015EC00FFF7C0FDBDE8084000F052BC00100240FF
:1015FC00144A4FF00073536003F1785303F58433AE
:10160C004FF04431196001F1886101F5787159602E
:10161C004FF41051D9600C490C4B0B604FF0223336
:10162C004B600023CB6041F6FF119360D3601361D4
:10163C005361C2F80014C2F80434C2F80814C2F89A
:10164C000C14704700000140000C0140444422FF80
:10165C00D0F8583230B56425B3FBF5F405FB1433E0
:10166C002B44B3FBF5F405FB143340F82310C833BB
:10167C0020F81320D0F858320133C0F8583230BD5E
:10168C002DE9F04FADF51D7D06460C4600F012FC21
:10169C00054672B63A494FF41C72684602FB0611B5
:1016AC0000F094FC62B6969B64216333B3FBF1F2B9
:1016BC0001FB123398A9D1E900899A995DF823208E
:1016CC004FF0010A0AFA01FADFB2AA1A00231FFA34
:1016DC008AFA4FF0000E969971450DD8284A4FF4AE
:1016EC001C7303FB06260022C6F86052C6F864225F
:1016FC000DF51D7DBDE8F08F5DF8270000214945F3
:10170C0008BF4045BC4609D25DF827B0B8EB0B00CA
:10171C0069F10001002908BF0628DFD207F1C801D2
:10172C003DF81110002B08BF062A89B208D3237884
:10173C0011EA0A0F1ABF5A1C62F303031033237009
:10174C006422013F97FBF2F302FB1377174497FBDC
:10175C00F2F102FB11715DF82C30CFB25DF8212053
:10176C005DF82C005DF821109A1A88424FF00003A6
:10177C00B4D30EF1010EBEF1640FACD1AEE700BFD5
:10178C00400000202DE9F04FADF5257D05460C46B7
:10179C0000F090FB019072B6654908AB4FF41C72D7
:1017AC00184602FB051100F011FC034662B6D0F896
:1017BC00581264206331B1FBF0F200FB1211019856
:1017CC00CAB253F821100027411A0E46CDE904671E
:1017DC00D3F86862032343FA06F111F0010107D133
:1017EC00C02343FA06F0C00705D54FF0060C04E001
:1017FC004FF0000C01E08C460B46C020304100F04D
:10180C00010003904FF0000E9E9E0DF1200A7645CC
:10181C007ED9A0AFD7E900895AF8226000274F453E
:10182C0008BF4645029206D25AF822600027B945F5
:10183C0008BFB0456CD100264FF0640AC6EB020B12
:10184C009BFBFAF70AFB17B7574497FBFAFB0AFB0B
:10185C001B770DF1200AC8373AF8177006A81F40FD
:10186C0027FA0CF720F816700136042EE4D1DDE9C6
:10187C0004673E4327D0BDF8186026BBBDF81A603C
:10188C00022E0BD1BDF81C60032E1CD1BDF81E60BE
:10189C00012E18D191B90398A8B10AE0012E12D1EA
:1018AC00BDF81C60032E0ED1BDF81E60022E0AD1AD
:1018BC0011B12678103605E0039820B12678771CF4
:1018CC0067F3030626706427013A92FBF7F607FBD1
:1018DC0016223A4492FBF7F607FB1626029808AF3D
:1018EC0057F820A057F826B04FF00009CBEB0A0AA6
:1018FC00D046F2B2CDE9048957F8209057F826600B
:10190C00B14505D30EF1010EBEF1640F7FF47CAF2F
:10191C00074A4FF41C7303FB0525019AC5F8602296
:10192C000022C5F864220DF5257DBDE8F08F00BFBF
:10193C004000002070B5124B124C1D78842604EB2D
:10194C0085056E701D7804EB8505A8701878154612
:10195C0004EB8004E1701C468DB10B4B2078013DEB
:10196C0003EBC000FFF710FD23786421013393FBD8
:10197C00F1F201FB1233DBB22370EDB2ECE770BD78
:10198C00D02400202C4900200C46002013B59DF8D3
:10199C0004300E2803F0F0036FF307138DF80430B6
:1019AC0015D80C4B1C5CFF2C11D001A9FFF768FE5D
:1019BC009DF804200020214602F00F02FFF7BAFF29
:1019CC009DF80420012021461209FFF7B3FF02B055
:1019DC0010BD00BF7021000870B5464CC2B06368E2
:1019EC00002B00F0848000F065FA23881BB20133D1
:1019FC0004EBC3035B68C01A042878D972B64FF4A1
:101A0C0084726846214600F0E1FA0023636062B6F6
:101A1C00019B0025202B94BF019B20230193019B4C
:101A2C009D4264D2BDF80020ACB2121B02F01F0222
:101A3C000132BDF800303DF8321001989BB2401BCA
:101A4C00012889B20DD901331B1B03F01F0301338D
:101A5C000DEBC3030DEBC2025B6852689B1A042B9F
:101A6C0041D941F60C1341F20C020B4093422BD09E
:101A7C0010D8B3F5805F2BD002D8A3BB132428E079
:101A8C0041F20402934230D041F2080293422AD12F
:101A9C000B241EE0B3F5C05F14D008D8B3F5885FF3
:101AAC000ED041F2081293421DD10C2411E041F6E4
:101ABC00040293420AD0B3F5C85F14D10E2408E097
:101ACC000D2406E00F2404E00A2402E0102400E0B8
:101ADC001224094E3378A34205D020461721012247
:101AEC00FFF728FF3470013599E71124F1E742B074
:101AFC0070BD00BFD4240020DC25002013B50023CA
:101B0C000E288DF8043098BF0E4B01A994BF1C5CB5
:101B1C00FF24FFF7B5FD9DF80420130705D0002026
:101B2C00214602F00F02FFF705FF9DF8042012F08A
:101B3C00F00F04D0012021461209FFF7FBFE02B082
:101B4C0010BD00BF7021000813B59DF804300328A8
:101B5C0003F0F0036FF3071304468DF8043013D829
:101B6C0001A9FFF70FFE094B9DF804201C5D09200D
:101B7C00214602F00F02FFF7DDFE9DF8042008203D
:101B8C0021461209FFF7D6FE02B010BD70210008E5
:101B9C00C04341F60C1238B5144C024023881BB2DA
:101BAC00013334F833309BB29A421ED02288104B4A
:101BBC0012B201321340002BBEBF03F1FF3363F0AE
:101BCC001F0301339BB22380636880B201336360CF
:101BDC0023881BB2013324F83300258800F06AF9FE
:101BEC002DB2013504EBC504606038BDD42400204F
:101BFC001F00008008B5074B01225A6100F05AF90A
:101C0C00054B01469A680548D243BDE8084092B29C
:101C1C00FFF71EBD000401400008014040000020F9
:101C2C0008B5074B02225A6100F044F9054B0146F6
:101C3C009A680548D243BDE8084092B2FFF708BD48
:101C4C00000401400008014040000020034B042226
:101C5C005A61D3F8080480B2FFF79ABF0004014020
:101C6C00034B08225A61D3F8080480B2FFF790BFE7
:101C7C000004014008B5074B10225A6100F01AF914
:101C8C00054B01469A680548D243BDE8084092B21C
:101C9C00FFF7DEBC000401400008014030160020B4
:101CAC00154B70B55C6904F4F0725A61D3F80854A2
:101CBC0000F000F90646A00605D5EA430F48314668
:101CCC0092B2FFF7C5FC610605D5EA430C483146D4
:101CDC0092B2FFF7BDFC220605D5EA43084831460F
:101CEC0092B2FFF7B5FCE30504D5A8B2BDE870408D
:101CFC00FFF74EBF70BD00BF00040140A0180020CC
:101D0C0020050020064B07495A69886812F4C05F09
:101D1C001CBF4FF4C0525A6180B2FFF739BF00BFED
:101D2C000004014000080140F8B50A20FFF72EFE20
:101D3C000920FFF72BFE244EFFF74EFE234B356890
:101D4C009C6800F0B7F804F00F0465400746E807FC
:101D5C0007D584F47F421E48394682F0FF02FFF714
:101D6C0077FCA90707D584F47F421A48394682F0DC
:101D7C00FF02FFF76DFC6A0707D584F47F42164813
:101D8C00394682F0FF02FFF763FC2B0707D584F47A
:101D9C007F421248394682F0FF02FFF759FC0B20B4
:101DAC00FFF7ACFE0C20FFF7A9FE0D20FFF7A6FEF7
:101DBC000E20FFF7A3FE00203460FFF7C5FEBDE840
:101DCC00F8400220FFF7C0BE18000020000C0140B4
:101DDC00101B0020801D0020F01F0020602200201E
:101DEC0070B541F20815274B08265E5141F2783543
:101DFC000B265E5141F2E8550C265E5141F6580512
:101E0C0004265E5141F6C82505265E5141F638552B
:101E1C0000225A5141F6A8750124C3F8D8445C51EC
:101E2C0042F218240220C3F8280C185142F28840C0
:101E3C000621C3F848170721C3F8B8190321C3F8C2
:101E4C006822C3F8981E195013460F4A9C2102F8B9
:101E5C00331002EBC302517821F03F0141F0020133
:101E6C005170517821F040015170517801F07F018F
:101E7C005170064901EB83010133642B5160E4D1AD
:101E8C0070BD00BF400000200C4600202C490020F3
:101E9C0008B5FFF75BF94FF47A73B0FBF3F0044B22
:101EAC000022013858609A6007221A6008BD00BFF2
:101EBC0010E000E0014B1868704700BFE0250020DF
:101ECC000A4B1A6801321A601B6801330CD1BFF33C
:101EDC004F8F0749074BCA6802F4E0621343CB608B
:101EEC00BFF34F8F00BFFDE7704700BFE025002018
:101EFC0000ED00E00400FA05034B10B51C681968EE
:101F0C0002199142FBD310BDE025002070477047A9
:101F1C0070477047704770477047704770477047FD
:101F2C0070477047704770477047704770477047ED
:101F3C00704700001E4B4FF008229A601D4AA3F513
:101F4C004063C3F8002302F1FC52C3F804231A497E
:101F5C0002F57922C3F808234FF0F032C3F80C23B2
:101F6C00C3F810131549C3F8141301F17F6101F57F
:101F7C007421C3F81823C3F81C131149C3F8201398
:101F8C001049C3F82423C3F8281301F19E4101F131
:101F9C006011C3F82C23C3F83023C3F83413C3F8EF
:101FAC003823094A1A6040F201125A60704700BF88
:101FBC0000ED00E0F0F0F0D0F0F010F0F0F0F0A058
:101FCC00B0C0C0F090F0F0F0C807808010B5431E90
:101FDC000A44914204D011F8014B03F8014FF8E781
:101FEC0010BD03460244934202D003F8011BFAE7EA
:101FFC007047000011020000BC4500209C0200004C
:10200C00C2450020A1040000D5450020A209000013
:10201C00E3450020F6010000E04500200000000030
:10202C000000000012020000C64500207A030000E8
:10203C00DB4500209D000000BA450020B1040000E3
:10204C00B4450020B2090000CA450020F000000091
:10205C00C0450020F7010000EE4500200000000004
:10206C0000000000FFFFFFFFFFFFFFFFFFFFFFFF70
:10207C00FFFFFFFFFFFF00FFFFFFFFFFFFFFFFFF63
:10208C00FFFFFFFFFFFFFFFFFFFFFFFFFFFFFFFF54
:10209C00FFFFFFFFFFFFFFFFFFFFFFFFFFFFFFFF44
:1020AC00FFFFFFFFFFFFFFFFFFFFFFFFFFFFFFFF34
:1020BC00FFFFFFFFFFFFFFFFFFFFFFFFFFFFFFFF24
:1020CC00FFFFFFFFFFFFFFFFFFFFFFFFFFFFFFFF14
:1020DC00FFFFFFFFFFFFFFFFFFFFFFFFFFFF01FF02
:1020EC00FFFFFFFFFFFFFFFFFFFFFFFFFFFFFFFFF4
:1020FC00FFFFFFFFFFFFFFFFFFFFFFFFFFFFFFFFE4
:10210C00FF02FFFFFFFFFFFFFFFFFFFFFFFFFFFFD0
:10211C00FFFFFFFFFF0304FFFFFFFFFFFFFFFFFFBA
:10212C00FFFFFFFFFFFFFFFFFFFFFFFFFFFFFFFFB3
:10213C00FFFFFFFFFFFFFFFFFFFFFFFFFFFFFFFFA3
:10214C00FFFFFFFFFFFFFFFFFFFFFFFFFFFFFFFF93
:10215C00FFFFFFFF05FFFFFFFFFFFF06FFFFFFFF76
:10216C00FFFFFFFF16161515010101010114130FD6
:03217C001011122D
:1021800000512502010000000051250200512502E6
:0C21900038000020000000000F000000DC
:040000050800090DD9
:00000001FF
