:020000040800F2
:1008000000500020CD090008D1090008D3090008D4
:10081000E9090008EB090008010A000800000000CF
:10082000000000000000000000000000170A00089F
:10083000190A0008000000001B0A0008291E000811
:10084000751E0008771E0008791E00082112000896
:100850007B1E00087D1E00080D170008B11B000854
:10086000C51B0008D91B0008ED1B0008310A000851
:10087000310A0008310A0008310A0008310A00086C
:10088000310A0008310A0008F11C0008310A00088A
:10089000310A0008310A0008310A0008011C00086A
:1008A0007F1E0008811E0008831E0008851E0008A8
:1008B000310A0008310A0008871E0008BD0B000835
:1008C0003D0E0008891E00088B1E00088D1E0008C2
:1008D0008F1E0008911E0008931E0008951E000838
:1008E000310A0008971E0008991E00080000000049
:1008F00000000000000000000000000000000000F8
:1009000000000000000000005FF808F107B500F0EB
:10091000AFFD234A234B24498B4204D252F8041FD3
:1009200043F8041BF7E7214B214A934203D20022EC
:1009300043F8042BF8E700F0A7FD684601A900F092
:100940008BFD1C4B1C4C1E46E41AA4100025A5422E
:1009500004DA56F8253098470135F8E7174B184C5C
:100960001E46E41AA4100025A54204DA56F82530E4
:1009700098470135F8E79DE8030000F011FE114BA0
:1009800006461D46104CE41AA410002C04DD013C60
:1009900055F824309847F8E7304600F065FD00BF71
:1009A000C8200008000000201C00002020000020BB
:1009B000502200205C0A00085C0A00085C0A00085B
:1009C0005C0A00085C0A00085C0A0008144800473A
:1009D000FEE71EF0040F0CBFEFF30880EFF3098071
:1009E0007146104A1047FEE7FEE71EF0040F0CBFE9
:1009F000EFF30880EFF3098071460B4A1047FEE7DA
:100A00001EF0040F0CBFEFF30880EFF3098071466E
:100A1000064A1047FEE7FEE7FEE7FEE770470000E4
:100A20000D090008E7090008FF090008150A000879
:020A3000FEE7DF
:100A3400CC200008000000201C000020CC2000086E
:100A440000000000000000002000002050220020D0
:080A540000000000000000009A
:100A5C0000210B46827830B502F03F020332441E6F
:100A6C000133DBB214F8015F934281EA0501F7D33D
:100A7C00C15430BD0C4B1A680AB90C4A1A6019687B
:100A8C000B4B0C48B1FBF3F382889BB292B222F071
:100A9C003F021A438280084A0133B1FBF2F19BB248
:100AAC0089B28183038470471C21002000127A00D4
:100ABC0040420F0000540040400D030038B5124D69
:100ACC001E23AB7014236B7048F240430F4C002074
:100ADC0023800F4B9B6803F0C003C02B13D10D4B2D
:100AEC0018604FF44073A38090232381A081FFF7FB
:100AFC00C1FF40F2414323800B232B70064B012096
:100B0C001A68064B1A6038BDF120002000540040D2
:100B1C00000C01403C800A4228000020F8200020F4
:100B2C0010B5184C23780A2B0DD023780B2B0FD132
:100B3C00154B164A1B6812689B1A0A2B82BF114B65
:100B4C000C221A7004E0FFF7B9FF0028EDD110BD9C
:100B5C00A3780C4A212B05D10B4B19680C4B19604F
:100B6C0022230CE0222B0BD1074B09491B68096887
:100B7C005B1A012B04D9074B012119601E239370BA
:100B8C0010BD00BFF120002028000020F82000201C
:100B9C004421002028800A42034B0A221860034B90
:100BAC001A70FFF7BDBF00BF1C210020F1200020F0
:100BBC002DE9F341874900208DF807008A8A864D7C
:100BCC0093B20A8B2C6843EA0242844B844E9B6896
:100BDC0022F07F471B0243F0530346F82430814C2C
:100BEC0027F48013A3424BD017D8B3F1021F2ED099
:100BFC000BD8102B00F09880502B40F0CF800B8836
:100C0C009BB243F001030B803AE0774A934200F029
:100C1C008B803032934233D0C0E0744A934200F060
:100C2C00898007D8103A934200F084800F329342A7
:100C3C007AD0B3E06E4A934200F08A80023293423B
:100C4C0000F08680043A934240F0A88080E0694925
:100C5C0001230B60C1F88030674912F4801F0B70C0
:100C6C00664A674B0ABF9021107011709A7818BFB2
:100C7C0018706FF305029A7008BF19701F2233E0C9
:100C8C005F4C604AA378DFF870E103F03F03043354
:100C9C001370594A11781B294E499BBF1078098A49
:100CAC00098A215496BF1178C9B2615C53488DF8FA
:100CBC00071012789A421AD290F800C09EF80020C1
:100CCC00D2B2511CA25CC9B28CEA02028EF800109E
:100CDC0002709EF800209A4266D10378002B63D0F4
:100CEC00444B00221A602122474B9A705CE0027838
:100CFC00404BDFF814818AB901221A60404800F099
:100D0C00BFFA202388F80230404BE27893F8283061
:100D1C009A4249D13E4A3F4BDA60FEE700221A6004
:100D2C00212388F802303FE02A4A13889BB243F013
:100D3C00010331E0384B00221A60384B254A1B78EE
:100D4C0099B211828DF80730354B01221A702BE0C5
:100D5C00334A34491378097899420DD31378DBB2AE
:100D6C00591CC9B211702D4AD35C1A4A8DF8073040
:100D7C009DF80730138217E02B4B186800F0B2FA7D
:100D8C00214B14225A70134A138ADBB28DF80730A8
:100D9C0013889BB243F40073138005E01A4B0A22AC
:100DAC001A70224B00221A602B689DF807105A1CEF
:100DBC0047EA016702334FF4FA6146F82270B3FB3D
:100DCC00F1F201FB12332B609DF8073002B0BDE845
:100DDC00F08100BF005400402000002010E000E033
:100DEC00B0010020440002001000020011000300BA
:100DFC008200070028800A423C210020F0200020BD
:100E0C002021002048210020F1200020881F00080C
:100E1C000400FA0500ED00E0A8800A42FC20002046
:100E2C00F5200020F620002040210020A4800A425A
:100E3C003A49F8B58B8A3A480A8B9BB243EA02438B
:100E4C00384C8268384E2768120242F05C0246F831
:100E5C002720DA0523F07F4505D5344B16225A702E
:100E6C000A221A7049E09F0526D5314B9A78500614
:100E7C0043D41B783C2B01D0842B19D12D4BC02291
:100E8C001A611A6822F008421A6040225A6100BFA7
:100E9C0000BF8021596100BF00BF1A619968254AC3
:100EAC004906FBD580231361136843F07F4313601D
:100EBC001E4B16225A7020E013F4806F1B4A1AD076
:100ECC000B889BB243F400730B80D378591ED170FE
:100EDC00002BEDD18268124B9B68D31A23F07F4311
:100EEC004F2BF8D9144B186800F005FA134B1868FF
:100EFC00FFF752FE01E00A231370084B00229A827E
:100F0C0023684FF4FA615A1C023346F82250B3FBA3
:100F1C00F1F201FB12332360F8BD00BF0054004016
:100F2C0010E000E020000020B0010020F1200020A3
:100F3C00FC200020000C0140402100201C2100203E
:100F4C00274B70B51B68274C274A284D2848294940
:100F5C000BBB92682368120242F0C50245F82320AD
:100F6C0002685E1C42F0804202334FF4FA6045F88E
:100F7C002620B3FBF0F200FB123323601E4B1F4AFA
:100F8C009B78C3F305030433137015234B701C4B70
:100F9C0001221A6070BD926823681202006842F048
:100FAC00C50245F8232040F000465A1C45F8226043
:100FBC0002334FF4FA65B3FBF5F205FB12332360F1
:100FCC00CB785A1ECA7013B116234B7070BD00F04B
:100FDC0092F9BDE870400B4B1868FFF7DDBD00BF00
:100FEC0004830A422000002010E000E0B001002041
:100FFC0040210020F1200020FC200020F6200020C1
:10100C0020800A421C21002010B50446054B0A2200
:10101C000548DA70FFF71CFD044B1C60BDE810405E
:10102C00FFF78EBFF1200020FC2000204021002083
:10103C0008B5054B1868FFF7AFFD044B0A22DA70B0
:10104C0016225A7008BD00BF1C210020F120002080
:10105C00334BE8B100221421DA601A6159619A61AC
:10106C00DA61196841F00101196058682D49014095
:10107C005960196821F0847121F480311960196864
:10108C0021F480211960596821F4FE0159609A609D
:10109C001A68112122F0F8021A601A6842F08002D4
:1010AC001A605A6822F0F0025A605A6822F46052B0
:1010BC005A605A6822F4E0625A605A6822F440423C
:1010CC005A605A6842F480425A60174A11604FF6CF
:1010DC00C07259680A405A605A68012142F4E01201
:1010EC005A60124A1160124A1268002AFBD05A68E0
:1010FC0022F0030242F002025A605A6802F00C021B
:10110C00082AFAD10B4B02221A700B4B01221A70CF
:10111C000A4B0B4A13600B4A13600B4A136070475F
:10112C00001002400000FFF8002002406000424224
:10113C0064004242340000200400002000512502CB
:10114C000C0000200000002008000020014B186853
:10115C00704700BF0C000020014B1868704700BF9F
:10116C0008000020164A012310B5136002F5501236
:10117C0002F58C621360134B1B68002BFBD0124BD7
:10118C004FF402421A62114B00221A601A68002AAC
:10119C00FCD00F4B1A68002AFBD00E4A01211160BB
:1011AC001A68002AFCD00C4A01210C481160282432
:1011BC0000210181848111601A68002AFCD010BDC5
:1011CC0020000E4284044242001002408C00054272
:1011DC0094000542000005429000054200280040A2
:1011EC000A4B10B40A4C03F13400012221680A4264
:1011FC004FEA420204D0196811B11968013919601B
:10120C0004338342F2D15DF8044B70474C2100202B
:10121C003000002038B5144B144A00241C601368AD
:10122C0001331360FFF7DCFF114A1378012B02D84E
:10123C000133137013E00F4B14701D787DB900F05F
:10124C00BDF804280C4C09D123780133DBB2092BEF
:10125C00237004D9FFF7ECFE257000E02570074BD6
:10126C001B68002BFBD038BD8000054228000020F5
:10127C0025000020240000202C00002094000542B2
:10128C0038B5164AC3780546D35CFF2B24D01449D5
:10129C008278DB00CC18607802F03F02013AD2B2BF
:1012AC0000F03F0082420B44C8BF62785C68C8BF44
:1012BC0002F03F02A01C291D00F034FE237801200F
:1012CC0013F0010F237814BF43F0020343F0010322
:1012DC0023706B78637038BD062038BDC81F0008BA
:1012EC00881F0008037823F002030370037823F0AF
:1012FC00010303707047037843F002030370037813
:10130C0023F0010303707047024B00221A705A70CD
:10131C00704700BFC021002010B5FFF7F5FF0D4C42
:10132C0023784BB16278606802F03F0200210232F0
:10133C0000F003FE0834F3E7074C23784BB16278D6
:10134C00606802F03F020021023200F0F6FD083422
:10135C00F3E710BD881F0008581F00080949052332
:10136C004A78013292FBF3F303EB8303D31A0A7826
:10137C00DBB293421FBF4A784B7001EB8202506084
:10138C00704700BFC02100204268137843F001036E
:10139C001370FFF7E3BF000007490A784B789A42B5
:1013AC0009D00B780522013393FBF2F202EB820297
:1013BC009B1ADBB20B707047C02100201F4A10B57E
:1013CC0013880BB1013B13801D4B1A780C2A2ED1BC
:1013DC005B78162B03D1FFF7B3FD012010BD142B46
:1013EC0027D1184B19785A78914224D01A7816487C
:1013FC0003EB82035C68043061684B78023100F8BF
:10140C00043C902300F8033C6378013300F8023C61
:10141C00237800F8013C627802F03F0200F082FD74
:10142C006068FFF7F1FDFFF7B7FF032010BD09203F
:10143C0010BD042010BD022010BD00BF36000020DE
:10144C00F1200020C0210020FC200020012303609B
:10145C00014B0B60704700BF1000002008B500F076
:10146C000FF8000008B500F01DF8024B024A9A6014
:10147C0008BD00BF00ED00E00008000800F038B81F
:10148C00BFF34F8F0549064BCA6802F4E062134361
:10149C00CB60BFF34F8F00BFFDE700BF00ED00E056
:1014AC000400FA050F4B1A6842F001021A605968E1
:1014BC000D4A0A405A601A6822F0847222F4803273
:1014CC001A601A6822F480221A605A6822F4FE020A
:1014DC005A604FF41F029A60044B4FF000629A60FE
:1014EC00704700BF001002400000FFF800ED00E064
:1014FC007047000010B5114C2378DB071CD52378FE
:10150C0023F001032370A378AD2B15D1E378262BA0
:10151C0012D123798B2B0FD1012000F09BFC084BAF
:10152C004FF0FF32C3F88020C3F88420054B60785D
:10153C001B68BDE81040184710BD00BFA721002054
:10154C0000E100E0400000080F4A1378DB0719D5D2
:10155C00137823F00103137091780C4BC9B2997076
:10156C005178C9B259700021D9701971597191789B
:10157C0001F0FF0219B90121D9701A715A7104488E
:10158C00FFF702BF704700BF80210020A12100207F
:10159C00681F000808B5012000F060F8FFF7DCFDBB
:1015AC00FFF7FAFA00F070F800F072FCFFF7B4FEE7
:1015BC0000F02AFB00F0DEFB00F017F800F030F82A
:1015CC0020B9FFF797FFFFF7ABFAF7E700F090F8B9
:1015DC00FFF790FFFFF7B8FF00F092FA00F068FBFE
:1015EC00FFF79EFA00F01CF8F2E700F051BB000088
:1015FC00094B1A6842F004021A60084A116921F07A
:10160C0002011161116941F0040111611A6842F083
:10161C0002021A6030BF70470070004000ED00E01D
:10162C0010B50D4B187810F0010013D01A7822F079
:10163C0001021A709878C4B2012C08D004D3022C81
:10164C0007D1FFF7D5FF04E000F010FB01E000F03C
:10165C001FFB012010BD00BFBA21002008B5FFF709
:10166C00F7FC084A936943F4037343F00103936155
:10167C00D36943F08153D361FFF774FDBDE8084093
:10168C0000F0B4BB00100240144B15495A6822F00C
:10169C00E0625A605A6842F080725A60114A1160D6
:1016AC00114951604AF23941D1601049C2F8001415
:1016BC004FF02231C2F804141021C2F80C1400228D
:1016CC003E219A60DA601A615A61C3F80014C3F8BB
:1016DC000424C3F80824C3F80C247047000001400C
:1016EC00488488220008014022288228222422FFD4
:1016FC00024B3E229A60DA60704700BF0004014042
:10170C00014B01225A617047000401402DE9F04F52
:10171C0093B006460C4600F07BFB054672B6DFF82C
:10172C00ECA04822684602FB06A100F0FBFB62B667
:10173C00DDE90E890D9B0A210933B3FBF1F201FBA4
:10174C00123312AADFB202EB830353F8482C4FF08A
:10175C00000EAA1A00230D99714508D8482303FBE3
:10176C0006A60022B563F26313B0BDE8F08F12A990
:10177C0001EB870B5BF8480C0021494508BF40453D
:10178C00BC4609D25BF848BCB8EB0B0069F1000110
:10179C00002908BF1528E1D2002B08BF152A10D349
:1017AC0012AB3B4413F8202C22B923785A1C62F359
:1017BC00030305E013F8203C012B02D123781033EE
:1017CC0023700A21013F97FBF1F301FB13770F44C0
:1017DC0097FBF1F301FB137112AA12AB03EB8C0C08
:1017EC00CFB202EB81015CF8483C51F8482C5CF814
:1017FC00480C51F8481C9A1A88424FF00003ADD39C
:10180C000EF1010EBEF10A0FA5D1A7E74000002092
:10181C002DE9F04792B005460C4600F0F9FA8046E7
:10182C0072B6DFF804A14822684602FB05A100F05D
:10183C0079FB62B6DDE90E670D9A0A210932B2FB1B
:10184C00F1F3D44601FB132212A9D3B201EB8202AD
:10185C0052F8482C4FF00009C2EB080E0D9A4A457D
:10186C0009D8482303FB05C50022C5F83880EA6374
:10187C0012B0BDE8F08712AA02EB830252F8480CB2
:10188C000021B94208BFB0429A4608D252F8482CFF
:10189C00B01A67F10001002908BF1528E1D2BEF18A
:1018AC00140F1ED94DB912AA1A4412F8202C032A6F
:1018BC0017D8DFE802F0110E0E11012D11D112AA6A
:1018CC001A4412F8202C032A0BD8DFE802F0020588
:1018DC0005022278103203E02278511C61F30302D6
:1018EC0022700A22013B93FBF2F102FB11331344E9
:1018FC0093FBF2F102FB113212A901EB8A0AD3B26B
:10190C0001EB82025AF8480C52F8481CC1EB000E4D
:10191C005AF8481C52F8482C9142A2D309F10109FB
:10192C00B9F10A0F9AD19CE7400000200238C0B2EE
:10193C0002289ABF014B185CFF207047C820000892
:10194C0037B59DF80430044603F0F0036FF307132A
:10195C008DF80430FFF7EAFFFF28054659D02046E2
:10196C0001A9FFF7D3FE9DF804301B0727D02A4CA2
:10197C002A4B2278842103EB8202517022780021B9
:10198C0003EB82029170227803EB8203DD702078E6
:10199C00234B03EBC000FFF7F7FC23780A2101333C
:1019AC0093FBF1F201FB1233DBB223709DF8043090
:1019BC0003F10F0262F303038DF80430D3E79DF8B3
:1019CC00043013F0F00F24D0134C144B22788421E4
:1019DC0003EB820251702278012103EB8202917099
:1019EC00227803EB8203DD7020780D4B03EBC000F3
:1019FC00FFF7CAFC23780A21013393FBF1F201FBB8
:101A0C001233DBB223709DF80430F0338DF80430C0
:101A1C00D5E703B030BD00BFA8010020282200206C
:101A2C00D821002013B59DF80430012803F0F003F1
:101A3C006FF307138DF804305AD801A9FFF7E8FEAD
:101A4C009DF804301B0728D02A4C2B4B227884217C
:101A5C0003EB820251702278082103EB8202917011
:101A6C00227803EB82031B22DA702078234B03EBE2
:101A7C00C000FFF789FC23780A21013393FBF1F2B4
:101A8C0001FB1233DBB223709DF8043003F10F021B
:101A9C0062F303038DF80430D2E79DF8043013F0A1
:101AAC00F00F25D0134C144B2278842103EB8202C7
:101ABC0051702278092103EB82029170227803EB9A
:101ACC0082031B22DA7020780C4B03EBC000FFF76B
:101ADC005BFC23780A21013393FBF1F201FB1233F7
:101AEC00DBB223709DF80430F0338DF80430D4E76A
:101AFC0002B010BDA801002028220020D82100200F
:101B0C0008B50320FFF71CFF0220FFF719FF042084
:101B1C00FFF716FF0020FFF785FFBDE80840012006
:101B2C00FFF780BF436B0A21B3FBF1F201FB1233C9
:101B3C000B44B3FBF1F001FB1030C0B27047000056
:101B4C00174B70B504469D6800F062F906462046B6
:101B5C00FFF7E8FF226C012101FA02F39BB244F873
:101B6C0020602B40204414BF80F8281080F82830C7
:101B7C00012A04D190F8283015F0040F05E0022A50
:101B8C0009D190F8283015F0020F14BF43F002036E
:101B9C00DBB280F82830636B0133636370BD00BF28
:101BAC0000080140024B02225A610248FFF7C8BFED
:101BBC000004014040000020024B04225A610248FC
:101BCC00FFF7BEBF0004014088000020024B082232
:101BDC005A610248FFF7B4BF00040140D000002056
:101BEC00024B10225A610248FFF7AABF00040140C1
:101BFC0018010020024B20225A610248FFF7A0BFB7
:101C0C000004014060010020154B01221A640222DD
:101C1C00C3F888200322C3F8D0200422C3F818216B
:101C2C000522C3F8602100220E4B9C2103F83210D0
:101C3C0003EBC203597821F03F0141F002015970C6
:101C4C00597821F040015970597801F07F01597091
:101C5C00054901EB820101320A2A5960E4D170472F
:101C6C0040000020D82100202822002008B5064B77
:101C7C0010221A61032000F0EDF8044A136843F0B7
:101C8C003E03136008BD00BF000C0140000401407E
:101C9C00064B1A6822F002021A601A6822F004023B
:101CAC001A604FF48012C3F81028704700040140EA
:101CBC00094B1B78DB070ED5084B1A78084B1AB169
:101CCC009A7842F0010202E09A7822F001029A70AE
:101CDC000348FFF759BB704792210020A90100204F
:101CEC00180000201F4B10B5D96C0024A1F6AB22B4
:101CFC00B2F5F87F1C6040F69B401B4A12D240F6AE
:101D0C00AA21586299621378012B2AD01748012313
:101D1C001370837843F001038370FFF735FB4FF4A6
:101D2C0080721CE0814204DD40F6FF7159629862BA
:101D3C0007E040F6A9208142DEBF40F6AA21596295
:101D4C009C6213786BB10948074B00221A70837898
:101D5C0023F001038370FFF717FB4FF08072044BE5
:101D6C001A6110BD00240140A901002018000020B8
:101D7C00000801401B4B00221A609A68D2075EBF14
:101D8C009A6842F001029A609A6842F4F0129A60E2
:101D9C009A6842F008029A60124A93681B07FBD4B7
:101DAC00936843F00403936091680E4B11F00401A7
:101DBC00FAD140F6FF725A6240F69B429A620A4A86
:101DCC005A6007221A6159639A6842F002029A60BB
:101DDC009A6842F001029A609A6842F480029A6012
:101DEC00704700BF002401404002800008B5FFF797
:101DFC00ADF94FF47A73B0FBF3F0044B00220138C9
:101E0C0058609A6007221A6008BD00BF10E000E01D
:101E1C00014B1868704700BFAC0100200A4B1A68D0
:101E2C0001321A601B6801330CD1BFF34F8F074985
:101E3C00074BCA6802F4E0621343CB60BFF34F8FC9
:101E4C0000BFFDE7704700BFAC01002000ED00E0D3
:101E5C000400FA05034B10B51C681968021991426D
:101E6C00FBD310BDAC010020704770477047704722
:101E7C00704770477047704770477047704770479E
:101E8C007047704770477047704770477047000045
:101E9C001D4B4FF008229A601C4AA3F54063C3F80F
:101EAC00002302F1FC52C3F80423194902F57922EC
:101EBC00C3F808234FF0F032C3F80C23C3F8101307
:101ECC001449C3F8141301F17F6101F57421C3F8AF
:101EDC001823C3F81C131049C3F820130F49C3F877
:101EEC002423C3F8281301F19E4101F16011C3F8BA
:101EFC002C23C3F83023C3F83413C3F83823084A0F
:101F0C001A6001225A60704700ED00E0F0F0F0D04A
:101F1C00F0F010F0F0F0F0A0B0C0C0F090F0F0F0E5
:101F2C008807848010B5431E0A44914204D011F8EE
:101F3C00014B03F8014FF8E710BD034602449342EE
:101F4C0002D003F8011BFAE77047000011020000F1
:101F5C00882100209C0200008E210020A10400009A
:101F6C00A1210020A2090000AF210020F6010000F1
:101F7C00AC21002000000000000000001202000054
:101F8C00922100207A030000A72100209D00000070
:101F9C0086210020B104000080210020B20900003D
:101FAC0096210020F00000008C210020F701000099
:101FBC00BA2100200000000000000000FFFFFFFF1E
:101FCC00FFFFFFFFFFFFFFFFFFFFFFFFFFFF00FF14
:101FDC00FFFFFFFFFFFFFFFFFFFFFFFFFFFFFFFF05
:101FEC00FFFFFFFFFFFFFFFFFFFFFFFFFFFFFFFFF5
:101FFC00FFFFFFFFFFFFFFFFFFFFFFFFFFFFFFFFE5
:10200C00FFFFFFFFFFFFFFFFFFFFFFFFFFFFFFFFD4
:10201C00FFFFFFFFFFFFFFFFFFFFFFFFFFFFFFFFC4
:10202C00FFFFFFFFFFFFFFFFFFFFFFFFFFFFFFFFB4
:10203C00FFFFFFFFFFFF01FFFFFFFFFFFFFFFFFFA2
:10204C00FFFFFFFFFFFFFFFFFFFFFFFFFFFFFFFF94
:10205C00FFFFFFFFFFFFFFFFFF02FFFFFFFFFFFF81
:10206C00FFFFFFFFFFFFFFFFFFFFFFFFFF0304FF6B
:10207C00FFFFFFFFFFFFFFFFFFFFFFFFFFFFFFFF64
:10208C00FFFFFFFFFFFFFFFFFFFFFFFFFFFFFFFF54
:10209C00FFFFFFFFFFFFFFFFFFFFFFFFFFFFFFFF44
:1020AC00FFFFFFFFFFFFFFFFFFFFFFFF05FFFFFF2E
:0F20BC00FFFFFF06FFFFFFFFFFFFFFFF19181ACF
:1020CC00005125020100000000512502005125029B
:0C20DC003800002000000000008400928A
:040000050800090DD9
:00000001FF
